{
  "_format": "hh-sol-artifact-1",
  "contractName": "Factory",
  "sourceName": "contracts/Factory.sol",
  "abi": [
    {
      "inputs": [
        {
          "internalType": "uint256",
          "name": "_fee",
          "type": "uint256"
        }
      ],
      "stateMutability": "nonpayable",
      "type": "constructor"
    },
    {
      "anonymous": false,
      "inputs": [
        {
          "indexed": true,
          "internalType": "address",
          "name": "token",
          "type": "address"
        }
      ],
      "name": "Created",
      "type": "event"
    },
    {
      "inputs": [
        {
          "internalType": "string",
          "name": "_name",
          "type": "string"
        },
        {
          "internalType": "string",
          "name": "_symbol",
          "type": "string"
        }
      ],
      "name": "create",
      "outputs": [],
      "stateMutability": "payable",
      "type": "function"
    },
    {
      "inputs": [],
      "name": "fee",
      "outputs": [
        {
          "internalType": "uint256",
          "name": "",
          "type": "uint256"
        }
      ],
      "stateMutability": "view",
      "type": "function"
    },
    {
      "inputs": [
        {
          "internalType": "uint256",
          "name": "_index",
          "type": "uint256"
        }
      ],
      "name": "getTokenSale",
      "outputs": [
        {
          "components": [
            {
              "internalType": "address",
              "name": "token",
              "type": "address"
            },
            {
              "internalType": "string",
              "name": "name",
              "type": "string"
            },
            {
              "internalType": "address",
              "name": "creator",
              "type": "address"
            },
            {
              "internalType": "uint256",
              "name": "sold",
              "type": "uint256"
            },
            {
              "internalType": "uint256",
              "name": "raised",
              "type": "uint256"
            },
            {
              "internalType": "bool",
              "name": "isOpen",
              "type": "bool"
            }
          ],
          "internalType": "struct Factory.TokenSale",
          "name": "",
          "type": "tuple"
        }
      ],
      "stateMutability": "view",
      "type": "function"
    },
    {
      "inputs": [],
      "name": "name",
      "outputs": [
        {
          "internalType": "string",
          "name": "",
          "type": "string"
        }
      ],
      "stateMutability": "view",
      "type": "function"
    },
    {
      "inputs": [],
      "name": "owner",
      "outputs": [
        {
          "internalType": "address",
          "name": "",
          "type": "address"
        }
      ],
      "stateMutability": "view",
      "type": "function"
    },
    {
      "inputs": [
        {
          "internalType": "address",
          "name": "",
          "type": "address"
        }
      ],
      "name": "tokenToSale",
      "outputs": [
        {
          "internalType": "address",
          "name": "token",
          "type": "address"
        },
        {
          "internalType": "string",
          "name": "name",
          "type": "string"
        },
        {
          "internalType": "address",
          "name": "creator",
          "type": "address"
        },
        {
          "internalType": "uint256",
          "name": "sold",
          "type": "uint256"
        },
        {
          "internalType": "uint256",
          "name": "raised",
          "type": "uint256"
        },
        {
          "internalType": "bool",
          "name": "isOpen",
          "type": "bool"
        }
      ],
      "stateMutability": "view",
      "type": "function"
    },
    {
      "inputs": [
        {
          "internalType": "uint256",
          "name": "",
          "type": "uint256"
        }
      ],
      "name": "tokens",
      "outputs": [
        {
          "internalType": "address",
          "name": "",
          "type": "address"
        }
      ],
      "stateMutability": "view",
      "type": "function"
    },
    {
      "inputs": [],
      "name": "totalTokens",
      "outputs": [
        {
          "internalType": "uint256",
          "name": "",
          "type": "uint256"
        }
      ],
      "stateMutability": "view",
      "type": "function"
    }
  ],
  "bytecode": "0x60a06040526040518060400160405280600781526020017f466163746f727900000000000000000000000000000000000000000000000000815250600090816100489190610316565b5034801561005557600080fd5b5060405161316538038061316583398181016040528101906100779190610419565b806080818152505033600160006101000a81548173ffffffffffffffffffffffffffffffffffffffff021916908373ffffffffffffffffffffffffffffffffffffffff16021790555050610446565b600081519050919050565b7f4e487b7100000000000000000000000000000000000000000000000000000000600052604160045260246000fd5b7f4e487b7100000000000000000000000000000000000000000000000000000000600052602260045260246000fd5b6000600282049050600182168061014757607f821691505b60208210810361015a57610159610100565b5b50919050565b60008190508160005260206000209050919050565b60006020601f8301049050919050565b600082821b905092915050565b6000600883026101c27fffffffffffffffffffffffffffffffffffffffffffffffffffffffffffffffff82610185565b6101cc8683610185565b95508019841693508086168417925050509392505050565b6000819050919050565b6000819050919050565b600061021361020e610209846101e4565b6101ee565b6101e4565b9050919050565b6000819050919050565b61022d836101f8565b6102416102398261021a565b848454610192565b825550505050565b600090565b610256610249565b610261818484610224565b505050565b5b818110156102855761027a60008261024e565b600181019050610267565b5050565b601f8211156102ca5761029b81610160565b6102a484610175565b810160208510156102b3578190505b6102c76102bf85610175565b830182610266565b50505b505050565b600082821c905092915050565b60006102ed600019846008026102cf565b1980831691505092915050565b600061030683836102dc565b9150826002028217905092915050565b61031f826100c6565b67ffffffffffffffff811115610338576103376100d1565b5b610342825461012f565b61034d828285610289565b600060209050601f831160018114610380576000841561036e578287015190505b61037885826102fa565b8655506103e0565b601f19841661038e86610160565b60005b828110156103b657848901518255600182019150602085019450602081019050610391565b868310156103d357848901516103cf601f8916826102dc565b8355505b6001600288020188555050505b505050505050565b600080fd5b6103f6816101e4565b811461040157600080fd5b50565b600081519050610413816103ed565b92915050565b60006020828403121561042f5761042e6103e8565b5b600061043d84828501610404565b91505092915050565b608051612cfd6104686000396000818161029401526109000152612cfd6000f3fe60806040526004361061007b5760003560e01c80637e1c0c091161004e5780637e1c0c09146101415780638da5cb5b1461016c5780639c0ad5ed14610197578063ddca3f43146101d95761007b565b806306fdde0314610080578063198e2b8a146100ab5780631fbc147b146100c75780634f64b2be14610104575b600080fd5b34801561008c57600080fd5b50610095610204565b6040516100a29190610a23565b60405180910390f35b6100c560048036038101906100c09190610b8e565b610292565b005b3480156100d357600080fd5b506100ee60048036038101906100e99190610c3c565b61057e565b6040516100fb9190610da7565b60405180910390f35b34801561011057600080fd5b5061012b60048036038101906101269190610c3c565b610782565b6040516101389190610dd8565b60405180910390f35b34801561014d57600080fd5b506101566107c1565b6040516101639190610e02565b60405180910390f35b34801561017857600080fd5b506101816107c7565b60405161018e9190610dd8565b60405180910390f35b3480156101a357600080fd5b506101be60048036038101906101b99190610e49565b6107ed565b6040516101d096959493929190610e85565b60405180910390f35b3480156101e557600080fd5b506101ee6108fe565b6040516101fb9190610e02565b60405180910390f35b6000805461021190610f1c565b80601f016020809104026020016040519081016040528092919081815260200182805461023d90610f1c565b801561028a5780601f1061025f5761010080835404028352916020019161028a565b820191906000526020600020905b81548152906001019060200180831161026d57829003601f168201915b505050505081565b7f00000000000000000000000000000000000000000000000000000000000000003410156102f5576040517f08c379a00000000000000000000000000000000000000000000000000000000081526004016102ec90610f99565b60405180910390fd5b600033838369d3c21bcecceda100000060405161031190610922565b61031e9493929190610ffe565b604051809103906000f08015801561033a573d6000803e3d6000fd5b5090506003819080600181540180825580915050600190039060005260206000200160009091909190916101000a81548173ffffffffffffffffffffffffffffffffffffffff021916908373ffffffffffffffffffffffffffffffffffffffff160217905550600260008154809291906103b390611080565b919050555060006040518060c001604052808373ffffffffffffffffffffffffffffffffffffffff1681526020018581526020013373ffffffffffffffffffffffffffffffffffffffff168152602001600081526020016000815260200160011515815250905080600460008473ffffffffffffffffffffffffffffffffffffffff1673ffffffffffffffffffffffffffffffffffffffff16815260200190815260200160002060008201518160000160006101000a81548173ffffffffffffffffffffffffffffffffffffffff021916908373ffffffffffffffffffffffffffffffffffffffff16021790555060208201518160010190816104b6919061126a565b5060408201518160020160006101000a81548173ffffffffffffffffffffffffffffffffffffffff021916908373ffffffffffffffffffffffffffffffffffffffff160217905550606082015181600301556080820151816004015560a08201518160050160006101000a81548160ff0219169083151502179055509050508173ffffffffffffffffffffffffffffffffffffffff167f1449abf21e49fd025f33495e77f7b1461caefdd3d4bb646424a3f445c4576a5b60405160405180910390a250505050565b61058661092f565b600460006003848154811061059e5761059d61133c565b5b9060005260206000200160009054906101000a900473ffffffffffffffffffffffffffffffffffffffff1673ffffffffffffffffffffffffffffffffffffffff1673ffffffffffffffffffffffffffffffffffffffff1681526020019081526020016000206040518060c00160405290816000820160009054906101000a900473ffffffffffffffffffffffffffffffffffffffff1673ffffffffffffffffffffffffffffffffffffffff1673ffffffffffffffffffffffffffffffffffffffff16815260200160018201805461067490610f1c565b80601f01602080910402602001604051908101604052809291908181526020018280546106a090610f1c565b80156106ed5780601f106106c2576101008083540402835291602001916106ed565b820191906000526020600020905b8154815290600101906020018083116106d057829003601f168201915b505050505081526020016002820160009054906101000a900473ffffffffffffffffffffffffffffffffffffffff1673ffffffffffffffffffffffffffffffffffffffff1673ffffffffffffffffffffffffffffffffffffffff16815260200160038201548152602001600482015481526020016005820160009054906101000a900460ff1615151515815250509050919050565b6003818154811061079257600080fd5b906000526020600020016000915054906101000a900473ffffffffffffffffffffffffffffffffffffffff1681565b60025481565b600160009054906101000a900473ffffffffffffffffffffffffffffffffffffffff1681565b60046020528060005260406000206000915090508060000160009054906101000a900473ffffffffffffffffffffffffffffffffffffffff169080600101805461083690610f1c565b80601f016020809104026020016040519081016040528092919081815260200182805461086290610f1c565b80156108af5780601f10610884576101008083540402835291602001916108af565b820191906000526020600020905b81548152906001019060200180831161089257829003601f168201915b5050505050908060020160009054906101000a900473ffffffffffffffffffffffffffffffffffffffff16908060030154908060040154908060050160009054906101000a900460ff16905086565b7f000000000000000000000000000000000000000000000000000000000000000081565b61195c8061136c83390190565b6040518060c00160405280600073ffffffffffffffffffffffffffffffffffffffff16815260200160608152602001600073ffffffffffffffffffffffffffffffffffffffff16815260200160008152602001600081526020016000151581525090565b600081519050919050565b600082825260208201905092915050565b60005b838110156109cd5780820151818401526020810190506109b2565b60008484015250505050565b6000601f19601f8301169050919050565b60006109f582610993565b6109ff818561099e565b9350610a0f8185602086016109af565b610a18816109d9565b840191505092915050565b60006020820190508181036000830152610a3d81846109ea565b905092915050565b6000604051905090565b600080fd5b600080fd5b600080fd5b600080fd5b7f4e487b7100000000000000000000000000000000000000000000000000000000600052604160045260246000fd5b610a9b826109d9565b810181811067ffffffffffffffff82111715610aba57610ab9610a63565b5b80604052505050565b6000610acd610a45565b9050610ad98282610a92565b919050565b600067ffffffffffffffff821115610af957610af8610a63565b5b610b02826109d9565b9050602081019050919050565b82818337600083830152505050565b6000610b31610b2c84610ade565b610ac3565b905082815260208101848484011115610b4d57610b4c610a5e565b5b610b58848285610b0f565b509392505050565b600082601f830112610b7557610b74610a59565b5b8135610b85848260208601610b1e565b91505092915050565b60008060408385031215610ba557610ba4610a4f565b5b600083013567ffffffffffffffff811115610bc357610bc2610a54565b5b610bcf85828601610b60565b925050602083013567ffffffffffffffff811115610bf057610bef610a54565b5b610bfc85828601610b60565b9150509250929050565b6000819050919050565b610c1981610c06565b8114610c2457600080fd5b50565b600081359050610c3681610c10565b92915050565b600060208284031215610c5257610c51610a4f565b5b6000610c6084828501610c27565b91505092915050565b600073ffffffffffffffffffffffffffffffffffffffff82169050919050565b6000610c9482610c69565b9050919050565b610ca481610c89565b82525050565b600082825260208201905092915050565b6000610cc682610993565b610cd08185610caa565b9350610ce08185602086016109af565b610ce9816109d9565b840191505092915050565b610cfd81610c06565b82525050565b60008115159050919050565b610d1881610d03565b82525050565b600060c083016000830151610d366000860182610c9b565b5060208301518482036020860152610d4e8282610cbb565b9150506040830151610d636040860182610c9b565b506060830151610d766060860182610cf4565b506080830151610d896080860182610cf4565b5060a0830151610d9c60a0860182610d0f565b508091505092915050565b60006020820190508181036000830152610dc18184610d1e565b905092915050565b610dd281610c89565b82525050565b6000602082019050610ded6000830184610dc9565b92915050565b610dfc81610c06565b82525050565b6000602082019050610e176000830184610df3565b92915050565b610e2681610c89565b8114610e3157600080fd5b50565b600081359050610e4381610e1d565b92915050565b600060208284031215610e5f57610e5e610a4f565b5b6000610e6d84828501610e34565b91505092915050565b610e7f81610d03565b82525050565b600060c082019050610e9a6000830189610dc9565b8181036020830152610eac81886109ea565b9050610ebb6040830187610dc9565b610ec86060830186610df3565b610ed56080830185610df3565b610ee260a0830184610e76565b979650505050505050565b7f4e487b7100000000000000000000000000000000000000000000000000000000600052602260045260246000fd5b60006002820490506001821680610f3457607f821691505b602082108103610f4757610f46610eed565b5b50919050565b7f466163746f72793a2063726561746f7220666565206e6f74206d657400000000600082015250565b6000610f83601c8361099e565b9150610f8e82610f4d565b602082019050919050565b60006020820190508181036000830152610fb281610f76565b9050919050565b6000819050919050565b6000819050919050565b6000610fe8610fe3610fde84610fb9565b610fc3565b610c06565b9050919050565b610ff881610fcd565b82525050565b60006080820190506110136000830187610dc9565b818103602083015261102581866109ea565b9050818103604083015261103981856109ea565b90506110486060830184610fef565b95945050505050565b7f4e487b7100000000000000000000000000000000000000000000000000000000600052601160045260246000fd5b600061108b82610c06565b91507fffffffffffffffffffffffffffffffffffffffffffffffffffffffffffffffff82036110bd576110bc611051565b5b600182019050919050565b60008190508160005260206000209050919050565b60006020601f8301049050919050565b600082821b905092915050565b60006008830261112a7fffffffffffffffffffffffffffffffffffffffffffffffffffffffffffffffff826110ed565b61113486836110ed565b95508019841693508086168417925050509392505050565b600061116761116261115d84610c06565b610fc3565b610c06565b9050919050565b6000819050919050565b6111818361114c565b61119561118d8261116e565b8484546110fa565b825550505050565b600090565b6111aa61119d565b6111b5818484611178565b505050565b5b818110156111d9576111ce6000826111a2565b6001810190506111bb565b5050565b601f82111561121e576111ef816110c8565b6111f8846110dd565b81016020851015611207578190505b61121b611213856110dd565b8301826111ba565b50505b505050565b600082821c905092915050565b600061124160001984600802611223565b1980831691505092915050565b600061125a8383611230565b9150826002028217905092915050565b61127382610993565b67ffffffffffffffff81111561128c5761128b610a63565b5b6112968254610f1c565b6112a18282856111dd565b600060209050601f8311600181146112d457600084156112c2578287015190505b6112cc858261124e565b865550611334565b601f1984166112e2866110c8565b60005b8281101561130a578489015182556001820191506020850194506020810190506112e5565b868310156113275784890151611323601f891682611230565b8355505b6001600288020188555050505b505050505050565b7f4e487b7100000000000000000000000000000000000000000000000000000000600052603260045260246000fdfe608060405234801561001057600080fd5b5060405161195c38038061195c833981810160405281019061003291906105a7565b82828160039081610043919061085d565b508060049081610053919061085d565b50505033600560006101000a81548173ffffffffffffffffffffffffffffffffffffffff021916908373ffffffffffffffffffffffffffffffffffffffff16021790555083600660006101000a81548173ffffffffffffffffffffffffffffffffffffffff021916908373ffffffffffffffffffffffffffffffffffffffff1602179055506100e833826100f160201b60201c565b50505050610a1d565b600073ffffffffffffffffffffffffffffffffffffffff168273ffffffffffffffffffffffffffffffffffffffff16036101635760006040517fec442f0500000000000000000000000000000000000000000000000000000000815260040161015a919061093e565b60405180910390fd5b6101756000838361017960201b60201c565b5050565b600073ffffffffffffffffffffffffffffffffffffffff168373ffffffffffffffffffffffffffffffffffffffff16036101cb5780600260008282546101bf9190610988565b9250508190555061029e565b60008060008573ffffffffffffffffffffffffffffffffffffffff1673ffffffffffffffffffffffffffffffffffffffff16815260200190815260200160002054905081811015610257578381836040517fe450d38c00000000000000000000000000000000000000000000000000000000815260040161024e939291906109cb565b60405180910390fd5b8181036000808673ffffffffffffffffffffffffffffffffffffffff1673ffffffffffffffffffffffffffffffffffffffff16815260200190815260200160002081905550505b600073ffffffffffffffffffffffffffffffffffffffff168273ffffffffffffffffffffffffffffffffffffffff16036102e75780600260008282540392505081905550610334565b806000808473ffffffffffffffffffffffffffffffffffffffff1673ffffffffffffffffffffffffffffffffffffffff168152602001908152602001600020600082825401925050819055505b8173ffffffffffffffffffffffffffffffffffffffff168373ffffffffffffffffffffffffffffffffffffffff167fddf252ad1be2c89b69c2b068fc378daa952ba7f163c4a11628f55a4df523b3ef836040516103919190610a02565b60405180910390a3505050565b6000604051905090565b600080fd5b600080fd5b600073ffffffffffffffffffffffffffffffffffffffff82169050919050565b60006103dd826103b2565b9050919050565b6103ed816103d2565b81146103f857600080fd5b50565b60008151905061040a816103e4565b92915050565b600080fd5b600080fd5b6000601f19601f8301169050919050565b7f4e487b7100000000000000000000000000000000000000000000000000000000600052604160045260246000fd5b6104638261041a565b810181811067ffffffffffffffff821117156104825761048161042b565b5b80604052505050565b600061049561039e565b90506104a1828261045a565b919050565b600067ffffffffffffffff8211156104c1576104c061042b565b5b6104ca8261041a565b9050602081019050919050565b60005b838110156104f55780820151818401526020810190506104da565b60008484015250505050565b600061051461050f846104a6565b61048b565b9050828152602081018484840111156105305761052f610415565b5b61053b8482856104d7565b509392505050565b600082601f83011261055857610557610410565b5b8151610568848260208601610501565b91505092915050565b6000819050919050565b61058481610571565b811461058f57600080fd5b50565b6000815190506105a18161057b565b92915050565b600080600080608085870312156105c1576105c06103a8565b5b60006105cf878288016103fb565b945050602085015167ffffffffffffffff8111156105f0576105ef6103ad565b5b6105fc87828801610543565b935050604085015167ffffffffffffffff81111561061d5761061c6103ad565b5b61062987828801610543565b925050606061063a87828801610592565b91505092959194509250565b600081519050919050565b7f4e487b7100000000000000000000000000000000000000000000000000000000600052602260045260246000fd5b6000600282049050600182168061069857607f821691505b6020821081036106ab576106aa610651565b5b50919050565b60008190508160005260206000209050919050565b60006020601f8301049050919050565b600082821b905092915050565b6000600883026107137fffffffffffffffffffffffffffffffffffffffffffffffffffffffffffffffff826106d6565b61071d86836106d6565b95508019841693508086168417925050509392505050565b6000819050919050565b600061075a61075561075084610571565b610735565b610571565b9050919050565b6000819050919050565b6107748361073f565b61078861078082610761565b8484546106e3565b825550505050565b600090565b61079d610790565b6107a881848461076b565b505050565b5b818110156107cc576107c1600082610795565b6001810190506107ae565b5050565b601f821115610811576107e2816106b1565b6107eb846106c6565b810160208510156107fa578190505b61080e610806856106c6565b8301826107ad565b50505b505050565b600082821c905092915050565b600061083460001984600802610816565b1980831691505092915050565b600061084d8383610823565b9150826002028217905092915050565b61086682610646565b67ffffffffffffffff81111561087f5761087e61042b565b5b6108898254610680565b6108948282856107d0565b600060209050601f8311600181146108c757600084156108b5578287015190505b6108bf8582610841565b865550610927565b601f1984166108d5866106b1565b60005b828110156108fd578489015182556001820191506020850194506020810190506108d8565b8683101561091a5784890151610916601f891682610823565b8355505b6001600288020188555050505b505050505050565b610938816103d2565b82525050565b6000602082019050610953600083018461092f565b92915050565b7f4e487b7100000000000000000000000000000000000000000000000000000000600052601160045260246000fd5b600061099382610571565b915061099e83610571565b92508282019050808211156109b6576109b5610959565b5b92915050565b6109c581610571565b82525050565b60006060820190506109e0600083018661092f565b6109ed60208301856109bc565b6109fa60408301846109bc565b949350505050565b6000602082019050610a1760008301846109bc565b92915050565b610f3080610a2c6000396000f3fe608060405234801561001057600080fd5b50600436106100a95760003560e01c8063313ce56711610071578063313ce5671461016857806370a08231146101865780638da5cb5b146101b657806395d89b41146101d4578063a9059cbb146101f2578063dd62ed3e14610222576100a9565b806302d05d3f146100ae57806306fdde03146100cc578063095ea7b3146100ea57806318160ddd1461011a57806323b872dd14610138575b600080fd5b6100b6610252565b6040516100c39190610af9565b60405180910390f35b6100d4610278565b6040516100e19190610ba4565b60405180910390f35b61010460048036038101906100ff9190610c2d565b61030a565b6040516101119190610c88565b60405180910390f35b61012261032d565b60405161012f9190610cb2565b60405180910390f35b610152600480360381019061014d9190610ccd565b610337565b60405161015f9190610c88565b60405180910390f35b610170610366565b60405161017d9190610d3c565b60405180910390f35b6101a0600480360381019061019b9190610d57565b61036f565b6040516101ad9190610cb2565b60405180910390f35b6101be6103b7565b6040516101cb9190610da5565b60405180910390f35b6101dc6103dd565b6040516101e99190610ba4565b60405180910390f35b61020c60048036038101906102079190610c2d565b61046f565b6040516102199190610c88565b60405180910390f35b61023c60048036038101906102379190610dc0565b610492565b6040516102499190610cb2565b60405180910390f35b600660009054906101000a900473ffffffffffffffffffffffffffffffffffffffff1681565b60606003805461028790610e2f565b80601f01602080910402602001604051908101604052809291908181526020018280546102b390610e2f565b80156103005780601f106102d557610100808354040283529160200191610300565b820191906000526020600020905b8154815290600101906020018083116102e357829003601f168201915b5050505050905090565b600080610315610519565b9050610322818585610521565b600191505092915050565b6000600254905090565b600080610342610519565b905061034f858285610533565b61035a8585856105c8565b60019150509392505050565b60006012905090565b60008060008373ffffffffffffffffffffffffffffffffffffffff1673ffffffffffffffffffffffffffffffffffffffff168152602001908152602001600020549050919050565b600560009054906101000a900473ffffffffffffffffffffffffffffffffffffffff1681565b6060600480546103ec90610e2f565b80601f016020809104026020016040519081016040528092919081815260200182805461041890610e2f565b80156104655780601f1061043a57610100808354040283529160200191610465565b820191906000526020600020905b81548152906001019060200180831161044857829003601f168201915b5050505050905090565b60008061047a610519565b90506104878185856105c8565b600191505092915050565b6000600160008473ffffffffffffffffffffffffffffffffffffffff1673ffffffffffffffffffffffffffffffffffffffff16815260200190815260200160002060008373ffffffffffffffffffffffffffffffffffffffff1673ffffffffffffffffffffffffffffffffffffffff16815260200190815260200160002054905092915050565b600033905090565b61052e83838360016106bc565b505050565b600061053f8484610492565b90507fffffffffffffffffffffffffffffffffffffffffffffffffffffffffffffffff8110156105c257818110156105b2578281836040517ffb8f41b20000000000000000000000000000000000000000000000000000000081526004016105a993929190610e60565b60405180910390fd5b6105c1848484840360006106bc565b5b50505050565b600073ffffffffffffffffffffffffffffffffffffffff168373ffffffffffffffffffffffffffffffffffffffff160361063a5760006040517f96c6fd1e0000000000000000000000000000000000000000000000000000000081526004016106319190610af9565b60405180910390fd5b600073ffffffffffffffffffffffffffffffffffffffff168273ffffffffffffffffffffffffffffffffffffffff16036106ac5760006040517fec442f050000000000000000000000000000000000000000000000000000000081526004016106a39190610af9565b60405180910390fd5b6106b7838383610893565b505050565b600073ffffffffffffffffffffffffffffffffffffffff168473ffffffffffffffffffffffffffffffffffffffff160361072e5760006040517fe602df050000000000000000000000000000000000000000000000000000000081526004016107259190610af9565b60405180910390fd5b600073ffffffffffffffffffffffffffffffffffffffff168373ffffffffffffffffffffffffffffffffffffffff16036107a05760006040517f94280d620000000000000000000000000000000000000000000000000000000081526004016107979190610af9565b60405180910390fd5b81600160008673ffffffffffffffffffffffffffffffffffffffff1673ffffffffffffffffffffffffffffffffffffffff16815260200190815260200160002060008573ffffffffffffffffffffffffffffffffffffffff1673ffffffffffffffffffffffffffffffffffffffff16815260200190815260200160002081905550801561088d578273ffffffffffffffffffffffffffffffffffffffff168473ffffffffffffffffffffffffffffffffffffffff167f8c5be1e5ebec7d5bd14f71427d1e84f3dd0314c0f7b2291e5b200ac8c7c3b925846040516108849190610cb2565b60405180910390a35b50505050565b600073ffffffffffffffffffffffffffffffffffffffff168373ffffffffffffffffffffffffffffffffffffffff16036108e55780600260008282546108d99190610ec6565b925050819055506109b8565b60008060008573ffffffffffffffffffffffffffffffffffffffff1673ffffffffffffffffffffffffffffffffffffffff16815260200190815260200160002054905081811015610971578381836040517fe450d38c00000000000000000000000000000000000000000000000000000000815260040161096893929190610e60565b60405180910390fd5b8181036000808673ffffffffffffffffffffffffffffffffffffffff1673ffffffffffffffffffffffffffffffffffffffff16815260200190815260200160002081905550505b600073ffffffffffffffffffffffffffffffffffffffff168273ffffffffffffffffffffffffffffffffffffffff1603610a015780600260008282540392505081905550610a4e565b806000808473ffffffffffffffffffffffffffffffffffffffff1673ffffffffffffffffffffffffffffffffffffffff168152602001908152602001600020600082825401925050819055505b8173ffffffffffffffffffffffffffffffffffffffff168373ffffffffffffffffffffffffffffffffffffffff167fddf252ad1be2c89b69c2b068fc378daa952ba7f163c4a11628f55a4df523b3ef83604051610aab9190610cb2565b60405180910390a3505050565b600073ffffffffffffffffffffffffffffffffffffffff82169050919050565b6000610ae382610ab8565b9050919050565b610af381610ad8565b82525050565b6000602082019050610b0e6000830184610aea565b92915050565b600081519050919050565b600082825260208201905092915050565b60005b83811015610b4e578082015181840152602081019050610b33565b60008484015250505050565b6000601f19601f8301169050919050565b6000610b7682610b14565b610b808185610b1f565b9350610b90818560208601610b30565b610b9981610b5a565b840191505092915050565b60006020820190508181036000830152610bbe8184610b6b565b905092915050565b600080fd5b610bd481610ad8565b8114610bdf57600080fd5b50565b600081359050610bf181610bcb565b92915050565b6000819050919050565b610c0a81610bf7565b8114610c1557600080fd5b50565b600081359050610c2781610c01565b92915050565b60008060408385031215610c4457610c43610bc6565b5b6000610c5285828601610be2565b9250506020610c6385828601610c18565b9150509250929050565b60008115159050919050565b610c8281610c6d565b82525050565b6000602082019050610c9d6000830184610c79565b92915050565b610cac81610bf7565b82525050565b6000602082019050610cc76000830184610ca3565b92915050565b600080600060608486031215610ce657610ce5610bc6565b5b6000610cf486828701610be2565b9350506020610d0586828701610be2565b9250506040610d1686828701610c18565b9150509250925092565b600060ff82169050919050565b610d3681610d20565b82525050565b6000602082019050610d516000830184610d2d565b92915050565b600060208284031215610d6d57610d6c610bc6565b5b6000610d7b84828501610be2565b91505092915050565b6000610d8f82610ab8565b9050919050565b610d9f81610d84565b82525050565b6000602082019050610dba6000830184610d96565b92915050565b60008060408385031215610dd757610dd6610bc6565b5b6000610de585828601610be2565b9250506020610df685828601610be2565b9150509250929050565b7f4e487b7100000000000000000000000000000000000000000000000000000000600052602260045260246000fd5b60006002820490506001821680610e4757607f821691505b602082108103610e5a57610e59610e00565b5b50919050565b6000606082019050610e756000830186610aea565b610e826020830185610ca3565b610e8f6040830184610ca3565b949350505050565b7f4e487b7100000000000000000000000000000000000000000000000000000000600052601160045260246000fd5b6000610ed182610bf7565b9150610edc83610bf7565b9250828201905080821115610ef457610ef3610e97565b5b9291505056fea26469706673582212206b1b53b6b2df8620345d92a4305f428ed2fce501226aaf2ab6bb66b6d382250f64736f6c634300081c0033a2646970667358221220ca6656029fa8f58c1434cdec8b017946e5bd1ed61673a3dbf1036bba9ba0178764736f6c634300081c0033",
  "linkReferences": {},
  "deployedLinkReferences": {}
}